S02B00002F63796764726976652F652F475052532F475052535F435F53444B2F6275696C642F6770696F2F2F80
S31588240000214365872D002488000000000000000015
S31588240010FD6305B305B205623019440060DA059795
S3158824002000EF03630000248800003082FD6308B251
S31588240030056208B580DA08B608B4031FC40E0065BD
S31588240040301904000065059700EF036304003082A5
S31588240050A00124880000000000003082F7630FD0B6
S31588240060116210D1006828B4609C016D229B40E9F6
S3158824007090670148FF6A4CE8046A0EEAF42A08D293
S3158824008009D20AD20BD20CD20DD200681EB1E099BD
S315882400900C960D957C4F439F04D605D50A960995CB
S315882400A00B9708D0906740EA01482370EF6117B30D
S315882400B0009B006E01700160016E13B5809D13B795
S315882400C0C0DF409C12B540EA016C00680EB1E09905
S315882400D00D960EB5809D7C4F0C93459F099505D624
S315882400E00B970A9608D006D404D3906740EA014829
S315882400F02370EC610099E0F1146C2E9840E9006530
S31588240100D6170065040030820C003082600124886A
S31588240110FB6308D00DB08098006E0DB5096204D6AD
S3158824012005D606D607D5489C006D01F0006F09B41C
S3158824013040EAC567609808B440DC479B40EA006576
S315882401400997089000EF0563040030827801248893
S315882401505D0024880800308200000000000000002A
S315882401606C6564426C75654C6576656C20746F67BE
S31588240170676C653A256400004750494F2054657357
S3158824018074205461736B0000000000000000000096
S3158824019000000000000000000000000000000000AD
S705882400113D
